{
  "_format": "hh-sol-artifact-1",
  "contractName": "MarketPlace",
  "sourceName": "contracts/MarketPlace.sol",
  "abi": [
    {
      "inputs": [],
      "stateMutability": "nonpayable",
      "type": "constructor"
    },
    {
      "inputs": [
        {
          "internalType": "address",
          "name": "sender",
          "type": "address"
        },
        {
          "internalType": "uint256",
          "name": "tokenId",
          "type": "uint256"
        },
        {
          "internalType": "address",
          "name": "owner",
          "type": "address"
        }
      ],
      "name": "ERC721IncorrectOwner",
      "type": "error"
    },
    {
      "inputs": [
        {
          "internalType": "address",
          "name": "operator",
          "type": "address"
        },
        {
          "internalType": "uint256",
          "name": "tokenId",
          "type": "uint256"
        }
      ],
      "name": "ERC721InsufficientApproval",
      "type": "error"
    },
    {
      "inputs": [
        {
          "internalType": "address",
          "name": "approver",
          "type": "address"
        }
      ],
      "name": "ERC721InvalidApprover",
      "type": "error"
    },
    {
      "inputs": [
        {
          "internalType": "address",
          "name": "operator",
          "type": "address"
        }
      ],
      "name": "ERC721InvalidOperator",
      "type": "error"
    },
    {
      "inputs": [
        {
          "internalType": "address",
          "name": "owner",
          "type": "address"
        }
      ],
      "name": "ERC721InvalidOwner",
      "type": "error"
    },
    {
      "inputs": [
        {
          "internalType": "address",
          "name": "receiver",
          "type": "address"
        }
      ],
      "name": "ERC721InvalidReceiver",
      "type": "error"
    },
    {
      "inputs": [
        {
          "internalType": "address",
          "name": "sender",
          "type": "address"
        }
      ],
      "name": "ERC721InvalidSender",
      "type": "error"
    },
    {
      "inputs": [
        {
          "internalType": "uint256",
          "name": "tokenId",
          "type": "uint256"
        }
      ],
      "name": "ERC721NonexistentToken",
      "type": "error"
    },
    {
      "inputs": [
        {
          "internalType": "address",
          "name": "owner",
          "type": "address"
        }
      ],
      "name": "OwnableInvalidOwner",
      "type": "error"
    },
    {
      "inputs": [
        {
          "internalType": "address",
          "name": "account",
          "type": "address"
        }
      ],
      "name": "OwnableUnauthorizedAccount",
      "type": "error"
    },
    {
      "anonymous": false,
      "inputs": [
        {
          "indexed": true,
          "internalType": "address",
          "name": "owner",
          "type": "address"
        },
        {
          "indexed": true,
          "internalType": "address",
          "name": "approved",
          "type": "address"
        },
        {
          "indexed": true,
          "internalType": "uint256",
          "name": "tokenId",
          "type": "uint256"
        }
      ],
      "name": "Approval",
      "type": "event"
    },
    {
      "anonymous": false,
      "inputs": [
        {
          "indexed": true,
          "internalType": "address",
          "name": "owner",
          "type": "address"
        },
        {
          "indexed": true,
          "internalType": "address",
          "name": "operator",
          "type": "address"
        },
        {
          "indexed": false,
          "internalType": "bool",
          "name": "approved",
          "type": "bool"
        }
      ],
      "name": "ApprovalForAll",
      "type": "event"
    },
    {
      "anonymous": false,
      "inputs": [
        {
          "indexed": true,
          "internalType": "address",
          "name": "creator",
          "type": "address"
        },
        {
          "indexed": false,
          "internalType": "string",
          "name": "name",
          "type": "string"
        },
        {
          "indexed": false,
          "internalType": "string",
          "name": "description",
          "type": "string"
        }
      ],
      "name": "BrandRegistered",
      "type": "event"
    },
    {
      "anonymous": false,
      "inputs": [
        {
          "indexed": true,
          "internalType": "address",
          "name": "buyer",
          "type": "address"
        },
        {
          "indexed": true,
          "internalType": "uint256",
          "name": "productId",
          "type": "uint256"
        }
      ],
      "name": "NFTPurchased",
      "type": "event"
    },
    {
      "anonymous": false,
      "inputs": [
        {
          "indexed": true,
          "internalType": "address",
          "name": "previousOwner",
          "type": "address"
        },
        {
          "indexed": true,
          "internalType": "address",
          "name": "newOwner",
          "type": "address"
        }
      ],
      "name": "OwnershipTransferred",
      "type": "event"
    },
    {
      "anonymous": false,
      "inputs": [
        {
          "indexed": true,
          "internalType": "uint256",
          "name": "productId",
          "type": "uint256"
        },
        {
          "indexed": false,
          "internalType": "string",
          "name": "name",
          "type": "string"
        },
        {
          "indexed": false,
          "internalType": "uint256",
          "name": "price",
          "type": "uint256"
        },
        {
          "indexed": true,
          "internalType": "address",
          "name": "brandOwner",
          "type": "address"
        }
      ],
      "name": "ProductAdded",
      "type": "event"
    },
    {
      "anonymous": false,
      "inputs": [
        {
          "indexed": true,
          "internalType": "address",
          "name": "from",
          "type": "address"
        },
        {
          "indexed": true,
          "internalType": "address",
          "name": "to",
          "type": "address"
        },
        {
          "indexed": true,
          "internalType": "uint256",
          "name": "tokenId",
          "type": "uint256"
        }
      ],
      "name": "Transfer",
      "type": "event"
    },
    {
      "inputs": [
        {
          "internalType": "string",
          "name": "name",
          "type": "string"
        },
        {
          "internalType": "uint256",
          "name": "price",
          "type": "uint256"
        }
      ],
      "name": "addProduct",
      "outputs": [],
      "stateMutability": "nonpayable",
      "type": "function"
    },
    {
      "inputs": [
        {
          "internalType": "address",
          "name": "to",
          "type": "address"
        },
        {
          "internalType": "uint256",
          "name": "tokenId",
          "type": "uint256"
        }
      ],
      "name": "approve",
      "outputs": [],
      "stateMutability": "nonpayable",
      "type": "function"
    },
    {
      "inputs": [
        {
          "internalType": "address",
          "name": "owner",
          "type": "address"
        }
      ],
      "name": "balanceOf",
      "outputs": [
        {
          "internalType": "uint256",
          "name": "",
          "type": "uint256"
        }
      ],
      "stateMutability": "view",
      "type": "function"
    },
    {
      "inputs": [
        {
          "internalType": "address",
          "name": "",
          "type": "address"
        },
        {
          "internalType": "uint256",
          "name": "",
          "type": "uint256"
        }
      ],
      "name": "brandProducts",
      "outputs": [
        {
          "internalType": "uint256",
          "name": "",
          "type": "uint256"
        }
      ],
      "stateMutability": "view",
      "type": "function"
    },
    {
      "inputs": [
        {
          "internalType": "address",
          "name": "",
          "type": "address"
        }
      ],
      "name": "brands",
      "outputs": [
        {
          "internalType": "string",
          "name": "name",
          "type": "string"
        },
        {
          "internalType": "string",
          "name": "description",
          "type": "string"
        },
        {
          "internalType": "address",
          "name": "owner",
          "type": "address"
        },
        {
          "internalType": "bool",
          "name": "exists",
          "type": "bool"
        }
      ],
      "stateMutability": "view",
      "type": "function"
    },
    {
      "inputs": [
        {
          "internalType": "uint256",
          "name": "productId",
          "type": "uint256"
        }
      ],
      "name": "buyNFT",
      "outputs": [],
      "stateMutability": "payable",
      "type": "function"
    },
    {
      "inputs": [],
      "name": "getAllNFTs",
      "outputs": [
        {
          "components": [
            {
              "internalType": "uint256",
              "name": "productId",
              "type": "uint256"
            },
            {
              "internalType": "string",
              "name": "name",
              "type": "string"
            },
            {
              "internalType": "uint256",
              "name": "price",
              "type": "uint256"
            },
            {
              "internalType": "address",
              "name": "brandOwner",
              "type": "address"
            },
            {
              "internalType": "bool",
              "name": "minted",
              "type": "bool"
            }
          ],
          "internalType": "struct MarketPlace.Product[]",
          "name": "",
          "type": "tuple[]"
        }
      ],
      "stateMutability": "view",
      "type": "function"
    },
    {
      "inputs": [
        {
          "internalType": "uint256",
          "name": "tokenId",
          "type": "uint256"
        }
      ],
      "name": "getApproved",
      "outputs": [
        {
          "internalType": "address",
          "name": "",
          "type": "address"
        }
      ],
      "stateMutability": "view",
      "type": "function"
    },
    {
      "inputs": [
        {
          "internalType": "address",
          "name": "brandOwner",
          "type": "address"
        }
      ],
      "name": "getBrandProducts",
      "outputs": [
        {
          "internalType": "uint256[]",
          "name": "",
          "type": "uint256[]"
        }
      ],
      "stateMutability": "view",
      "type": "function"
    },
    {
      "inputs": [
        {
          "internalType": "address",
          "name": "user",
          "type": "address"
        }
      ],
      "name": "getUserOwnedProducts",
      "outputs": [
        {
          "internalType": "uint256[]",
          "name": "",
          "type": "uint256[]"
        }
      ],
      "stateMutability": "view",
      "type": "function"
    },
    {
      "inputs": [
        {
          "internalType": "address",
          "name": "",
          "type": "address"
        }
      ],
      "name": "hasRegisteredBrand",
      "outputs": [
        {
          "internalType": "bool",
          "name": "",
          "type": "bool"
        }
      ],
      "stateMutability": "view",
      "type": "function"
    },
    {
      "inputs": [
        {
          "internalType": "address",
          "name": "owner",
          "type": "address"
        },
        {
          "internalType": "address",
          "name": "operator",
          "type": "address"
        }
      ],
      "name": "isApprovedForAll",
      "outputs": [
        {
          "internalType": "bool",
          "name": "",
          "type": "bool"
        }
      ],
      "stateMutability": "view",
      "type": "function"
    },
    {
      "inputs": [],
      "name": "name",
      "outputs": [
        {
          "internalType": "string",
          "name": "",
          "type": "string"
        }
      ],
      "stateMutability": "view",
      "type": "function"
    },
    {
      "inputs": [],
      "name": "owner",
      "outputs": [
        {
          "internalType": "address",
          "name": "",
          "type": "address"
        }
      ],
      "stateMutability": "view",
      "type": "function"
    },
    {
      "inputs": [
        {
          "internalType": "uint256",
          "name": "tokenId",
          "type": "uint256"
        }
      ],
      "name": "ownerOf",
      "outputs": [
        {
          "internalType": "address",
          "name": "",
          "type": "address"
        }
      ],
      "stateMutability": "view",
      "type": "function"
    },
    {
      "inputs": [],
      "name": "productCounter",
      "outputs": [
        {
          "internalType": "uint256",
          "name": "",
          "type": "uint256"
        }
      ],
      "stateMutability": "view",
      "type": "function"
    },
    {
      "inputs": [
        {
          "internalType": "uint256",
          "name": "",
          "type": "uint256"
        }
      ],
      "name": "products",
      "outputs": [
        {
          "internalType": "uint256",
          "name": "productId",
          "type": "uint256"
        },
        {
          "internalType": "string",
          "name": "name",
          "type": "string"
        },
        {
          "internalType": "uint256",
          "name": "price",
          "type": "uint256"
        },
        {
          "internalType": "address",
          "name": "brandOwner",
          "type": "address"
        },
        {
          "internalType": "bool",
          "name": "minted",
          "type": "bool"
        }
      ],
      "stateMutability": "view",
      "type": "function"
    },
    {
      "inputs": [
        {
          "internalType": "string",
          "name": "name",
          "type": "string"
        },
        {
          "internalType": "string",
          "name": "description",
          "type": "string"
        }
      ],
      "name": "registerBrand",
      "outputs": [],
      "stateMutability": "nonpayable",
      "type": "function"
    },
    {
      "inputs": [],
      "name": "renounceOwnership",
      "outputs": [],
      "stateMutability": "nonpayable",
      "type": "function"
    },
    {
      "inputs": [
        {
          "internalType": "address",
          "name": "from",
          "type": "address"
        },
        {
          "internalType": "address",
          "name": "to",
          "type": "address"
        },
        {
          "internalType": "uint256",
          "name": "tokenId",
          "type": "uint256"
        }
      ],
      "name": "safeTransferFrom",
      "outputs": [],
      "stateMutability": "nonpayable",
      "type": "function"
    },
    {
      "inputs": [
        {
          "internalType": "address",
          "name": "from",
          "type": "address"
        },
        {
          "internalType": "address",
          "name": "to",
          "type": "address"
        },
        {
          "internalType": "uint256",
          "name": "tokenId",
          "type": "uint256"
        },
        {
          "internalType": "bytes",
          "name": "data",
          "type": "bytes"
        }
      ],
      "name": "safeTransferFrom",
      "outputs": [],
      "stateMutability": "nonpayable",
      "type": "function"
    },
    {
      "inputs": [
        {
          "internalType": "address",
          "name": "operator",
          "type": "address"
        },
        {
          "internalType": "bool",
          "name": "approved",
          "type": "bool"
        }
      ],
      "name": "setApprovalForAll",
      "outputs": [],
      "stateMutability": "nonpayable",
      "type": "function"
    },
    {
      "inputs": [
        {
          "internalType": "bytes4",
          "name": "interfaceId",
          "type": "bytes4"
        }
      ],
      "name": "supportsInterface",
      "outputs": [
        {
          "internalType": "bool",
          "name": "",
          "type": "bool"
        }
      ],
      "stateMutability": "view",
      "type": "function"
    },
    {
      "inputs": [],
      "name": "symbol",
      "outputs": [
        {
          "internalType": "string",
          "name": "",
          "type": "string"
        }
      ],
      "stateMutability": "view",
      "type": "function"
    },
    {
      "inputs": [
        {
          "internalType": "uint256",
          "name": "tokenId",
          "type": "uint256"
        }
      ],
      "name": "tokenURI",
      "outputs": [
        {
          "internalType": "string",
          "name": "",
          "type": "string"
        }
      ],
      "stateMutability": "view",
      "type": "function"
    },
    {
      "inputs": [
        {
          "internalType": "address",
          "name": "from",
          "type": "address"
        },
        {
          "internalType": "address",
          "name": "to",
          "type": "address"
        },
        {
          "internalType": "uint256",
          "name": "tokenId",
          "type": "uint256"
        }
      ],
      "name": "transferFrom",
      "outputs": [],
      "stateMutability": "nonpayable",
      "type": "function"
    },
    {
      "inputs": [
        {
          "internalType": "address",
          "name": "newOwner",
          "type": "address"
        }
      ],
      "name": "transferOwnership",
      "outputs": [],
      "stateMutability": "nonpayable",
      "type": "function"
    },
    {
      "inputs": [
        {
          "internalType": "address",
          "name": "",
          "type": "address"
        },
        {
          "internalType": "uint256",
          "name": "",
          "type": "uint256"
        }
      ],
      "name": "userOwnedProducts",
      "outputs": [
        {
          "internalType": "uint256",
          "name": "",
          "type": "uint256"
        }
      ],
      "stateMutability": "view",
      "type": "function"
    }
  ],
  "bytecode": "0x60806040523480156200001157600080fd5b50336040518060400160405280600881526020017f4272616e644e66740000000000000000000000000000000000000000000000008152506040518060400160405280600481526020017f424e465400000000000000000000000000000000000000000000000000000000815250816000908162000090919062000472565b508060019081620000a2919062000472565b505050600073ffffffffffffffffffffffffffffffffffffffff168173ffffffffffffffffffffffffffffffffffffffff16036200011a5760006040517f1e4fbdf70000000000000000000000000000000000000000000000000000000081526004016200011191906200059e565b60405180910390fd5b6200012b816200013260201b60201c565b50620005bb565b6000600660009054906101000a900473ffffffffffffffffffffffffffffffffffffffff16905081600660006101000a81548173ffffffffffffffffffffffffffffffffffffffff021916908373ffffffffffffffffffffffffffffffffffffffff1602179055508173ffffffffffffffffffffffffffffffffffffffff168173ffffffffffffffffffffffffffffffffffffffff167f8be0079c531659141344cd1fd0a4f28419497f9722a3daafe3b4186f6b6457e060405160405180910390a35050565b600081519050919050565b7f4e487b7100000000000000000000000000000000000000000000000000000000600052604160045260246000fd5b7f4e487b7100000000000000000000000000000000000000000000000000000000600052602260045260246000fd5b600060028204905060018216806200027a57607f821691505b60208210810362000290576200028f62000232565b5b50919050565b60008190508160005260206000209050919050565b60006020601f8301049050919050565b600082821b905092915050565b600060088302620002fa7fffffffffffffffffffffffffffffffffffffffffffffffffffffffffffffffff82620002bb565b620003068683620002bb565b95508019841693508086168417925050509392505050565b6000819050919050565b6000819050919050565b6000620003536200034d62000347846200031e565b62000328565b6200031e565b9050919050565b6000819050919050565b6200036f8362000332565b620003876200037e826200035a565b848454620002c8565b825550505050565b600090565b6200039e6200038f565b620003ab81848462000364565b505050565b5b81811015620003d357620003c760008262000394565b600181019050620003b1565b5050565b601f8211156200042257620003ec8162000296565b620003f784620002ab565b8101602085101562000407578190505b6200041f6200041685620002ab565b830182620003b0565b50505b505050565b600082821c905092915050565b6000620004476000198460080262000427565b1980831691505092915050565b600062000462838362000434565b9150826002028217905092915050565b6200047d82620001f8565b67ffffffffffffffff81111562000499576200049862000203565b5b620004a5825462000261565b620004b2828285620003d7565b600060209050601f831160018114620004ea5760008415620004d5578287015190505b620004e1858262000454565b86555062000551565b601f198416620004fa8662000296565b60005b828110156200052457848901518255600182019150602085019450602081019050620004fd565b8683101562000544578489015162000540601f89168262000434565b8355505b6001600288020188555050505b505050505050565b600073ffffffffffffffffffffffffffffffffffffffff82169050919050565b6000620005868262000559565b9050919050565b620005988162000579565b82525050565b6000602082019050620005b560008301846200058d565b92915050565b613d5780620005cb6000396000f3fe6080604052600436106101b75760003560e01c8063715018a6116100ec578063b88d4fde1161008a578063e0391b0911610064578063e0391b0914610660578063e985e9c51461068b578063f2fde38b146106c8578063ffb2d911146106f1576101b7565b8063b88d4fde146105bd578063c87b56dd146105e6578063d383ba1514610623576101b7565b80638da5cb5b116100c65780638da5cb5b1461051557806395d89b4114610540578063a22cb4651461056b578063b15247d914610594576101b7565b8063715018a6146104805780637acc0b20146104975780637b480d00146104d8576101b7565b806323b872dd1161015957806351ed82881161013357806351ed8288146103aa5780635b7fd9b5146103c65780636352211e1461040657806370a0823114610443576101b7565b806323b872dd1461031b57806332cef7dd1461034457806342842e0e14610381576101b7565b8063095ea7b311610195578063095ea7b3146102615780630ea332891461028a57806310ebaf38146102b35780631f16653b146102f0576101b7565b806301ffc9a7146101bc57806306fdde03146101f9578063081812fc14610224575b600080fd5b3480156101c857600080fd5b506101e360048036038101906101de91906129de565b61072e565b6040516101f09190612a26565b60405180910390f35b34801561020557600080fd5b5061020e610810565b60405161021b9190612ad1565b60405180910390f35b34801561023057600080fd5b5061024b60048036038101906102469190612b29565b6108a2565b6040516102589190612b97565b60405180910390f35b34801561026d57600080fd5b5061028860048036038101906102839190612bde565b6108be565b005b34801561029657600080fd5b506102b160048036038101906102ac9190612d53565b6108d4565b005b3480156102bf57600080fd5b506102da60048036038101906102d59190612bde565b610b1c565b6040516102e79190612dda565b60405180910390f35b3480156102fc57600080fd5b50610305610b4d565b6040516103129190612dda565b60405180910390f35b34801561032757600080fd5b50610342600480360381019061033d9190612df5565b610b53565b005b34801561035057600080fd5b5061036b60048036038101906103669190612e48565b610c55565b6040516103789190612a26565b60405180910390f35b34801561038d57600080fd5b506103a860048036038101906103a39190612df5565b610c75565b005b6103c460048036038101906103bf9190612b29565b610c95565b005b3480156103d257600080fd5b506103ed60048036038101906103e89190612e48565b610f1b565b6040516103fd9493929190612e75565b60405180910390f35b34801561041257600080fd5b5061042d60048036038101906104289190612b29565b611088565b60405161043a9190612b97565b60405180910390f35b34801561044f57600080fd5b5061046a60048036038101906104659190612e48565b61109a565b6040516104779190612dda565b60405180910390f35b34801561048c57600080fd5b50610495611154565b005b3480156104a357600080fd5b506104be60048036038101906104b99190612b29565b611168565b6040516104cf959493929190612ec8565b60405180910390f35b3480156104e457600080fd5b506104ff60048036038101906104fa9190612e48565b611253565b60405161050c9190612fe0565b60405180910390f35b34801561052157600080fd5b5061052a6112ea565b6040516105379190612b97565b60405180910390f35b34801561054c57600080fd5b50610555611314565b6040516105629190612ad1565b60405180910390f35b34801561057757600080fd5b50610592600480360381019061058d919061302e565b6113a6565b005b3480156105a057600080fd5b506105bb60048036038101906105b6919061306e565b6113bc565b005b3480156105c957600080fd5b506105e460048036038101906105df919061316b565b61164d565b005b3480156105f257600080fd5b5061060d60048036038101906106089190612b29565b611672565b60405161061a9190612ad1565b60405180910390f35b34801561062f57600080fd5b5061064a60048036038101906106459190612bde565b6116db565b6040516106579190612dda565b60405180910390f35b34801561066c57600080fd5b5061067561170c565b604051610682919061338e565b60405180910390f35b34801561069757600080fd5b506106b260048036038101906106ad91906133b0565b6118f2565b6040516106bf9190612a26565b60405180910390f35b3480156106d457600080fd5b506106ef60048036038101906106ea9190612e48565b611986565b005b3480156106fd57600080fd5b5061071860048036038101906107139190612e48565b611a0c565b6040516107259190612fe0565b60405180910390f35b60007f80ac58cd000000000000000000000000000000000000000000000000000000007bffffffffffffffffffffffffffffffffffffffffffffffffffffffff1916827bffffffffffffffffffffffffffffffffffffffffffffffffffffffff191614806107f957507f5b5e139f000000000000000000000000000000000000000000000000000000007bffffffffffffffffffffffffffffffffffffffffffffffffffffffff1916827bffffffffffffffffffffffffffffffffffffffffffffffffffffffff1916145b80610809575061080882611aa3565b5b9050919050565b60606000805461081f9061341f565b80601f016020809104026020016040519081016040528092919081815260200182805461084b9061341f565b80156108985780601f1061086d57610100808354040283529160200191610898565b820191906000526020600020905b81548152906001019060200180831161087b57829003601f168201915b5050505050905090565b60006108ad82611b0d565b506108b782611b95565b9050919050565b6108d082826108cb611bd2565b611bda565b5050565b600860003373ffffffffffffffffffffffffffffffffffffffff1673ffffffffffffffffffffffffffffffffffffffff16815260200190815260200160002060009054906101000a900460ff1615610961576040517f08c379a00000000000000000000000000000000000000000000000000000000081526004016109589061349c565b60405180910390fd5b60405180608001604052808381526020018281526020013373ffffffffffffffffffffffffffffffffffffffff16815260200160011515815250600960003373ffffffffffffffffffffffffffffffffffffffff1673ffffffffffffffffffffffffffffffffffffffff16815260200190815260200160002060008201518160000190816109ef9190613668565b506020820151816001019081610a059190613668565b5060408201518160020160006101000a81548173ffffffffffffffffffffffffffffffffffffffff021916908373ffffffffffffffffffffffffffffffffffffffff16021790555060608201518160020160146101000a81548160ff0219169083151502179055509050506001600860003373ffffffffffffffffffffffffffffffffffffffff1673ffffffffffffffffffffffffffffffffffffffff16815260200190815260200160002060006101000a81548160ff0219169083151502179055503373ffffffffffffffffffffffffffffffffffffffff167f7e9b123736ae10e5bbc542a67d3766bb88868f716a7665c7c9dc0966e5cde4f18383604051610b1092919061373a565b60405180910390a25050565b600c6020528160005260406000208181548110610b3857600080fd5b90600052602060002001600091509150505481565b60075481565b600073ffffffffffffffffffffffffffffffffffffffff168273ffffffffffffffffffffffffffffffffffffffff1603610bc55760006040517f64a0ae92000000000000000000000000000000000000000000000000000000008152600401610bbc9190612b97565b60405180910390fd5b6000610bd98383610bd4611bd2565b611bec565b90508373ffffffffffffffffffffffffffffffffffffffff168173ffffffffffffffffffffffffffffffffffffffff1614610c4f578382826040517f64283d7b000000000000000000000000000000000000000000000000000000008152600401610c4693929190613771565b60405180910390fd5b50505050565b60086020528060005260406000206000915054906101000a900460ff1681565b610c908383836040518060200160405280600081525061164d565b505050565b806000600a60008381526020019081526020016000206002015411610cef576040517f08c379a0000000000000000000000000000000000000000000000000000000008152600401610ce6906137f4565b60405180910390fd5b813373ffffffffffffffffffffffffffffffffffffffff16600a600083815260200190815260200160002060030160009054906101000a900473ffffffffffffffffffffffffffffffffffffffff1673ffffffffffffffffffffffffffffffffffffffff1603610d94576040517f08c379a0000000000000000000000000000000000000000000000000000000008152600401610d8b90613886565b60405180910390fd5b6000600a600085815260200190815260200160002090508060030160149054906101000a900460ff1615610dfd576040517f08c379a0000000000000000000000000000000000000000000000000000000008152600401610df4906138f2565b60405180910390fd5b8060020154341015610e44576040517f08c379a0000000000000000000000000000000000000000000000000000000008152600401610e3b9061395e565b60405180910390fd5b60018160030160146101000a81548160ff021916908315150217905550610e6b3385611e06565b600c60003373ffffffffffffffffffffffffffffffffffffffff1673ffffffffffffffffffffffffffffffffffffffff168152602001908152602001600020849080600181540180825580915050600190039060005260206000200160009091909190915055833373ffffffffffffffffffffffffffffffffffffffff167f7f8aed29394d49180b299699236f142fbd3a78f6d1464929dd17e87b73ebc8d260405160405180910390a350505050565b6009602052806000526040600020600091509050806000018054610f3e9061341f565b80601f0160208091040260200160405190810160405280929190818152602001828054610f6a9061341f565b8015610fb75780601f10610f8c57610100808354040283529160200191610fb7565b820191906000526020600020905b815481529060010190602001808311610f9a57829003601f168201915b505050505090806001018054610fcc9061341f565b80601f0160208091040260200160405190810160405280929190818152602001828054610ff89061341f565b80156110455780601f1061101a57610100808354040283529160200191611045565b820191906000526020600020905b81548152906001019060200180831161102857829003601f168201915b5050505050908060020160009054906101000a900473ffffffffffffffffffffffffffffffffffffffff16908060020160149054906101000a900460ff16905084565b600061109382611b0d565b9050919050565b60008073ffffffffffffffffffffffffffffffffffffffff168273ffffffffffffffffffffffffffffffffffffffff160361110d5760006040517f89c62b640000000000000000000000000000000000000000000000000000000081526004016111049190612b97565b60405180910390fd5b600360008373ffffffffffffffffffffffffffffffffffffffff1673ffffffffffffffffffffffffffffffffffffffff168152602001908152602001600020549050919050565b61115c611eff565b6111666000611f86565b565b600a6020528060005260406000206000915090508060000154908060010180546111919061341f565b80601f01602080910402602001604051908101604052809291908181526020018280546111bd9061341f565b801561120a5780601f106111df5761010080835404028352916020019161120a565b820191906000526020600020905b8154815290600101906020018083116111ed57829003601f168201915b5050505050908060020154908060030160009054906101000a900473ffffffffffffffffffffffffffffffffffffffff16908060030160149054906101000a900460ff16905085565b6060600c60008373ffffffffffffffffffffffffffffffffffffffff1673ffffffffffffffffffffffffffffffffffffffff1681526020019081526020016000208054806020026020016040519081016040528092919081815260200182805480156112de57602002820191906000526020600020905b8154815260200190600101908083116112ca575b50505050509050919050565b6000600660009054906101000a900473ffffffffffffffffffffffffffffffffffffffff16905090565b6060600180546113239061341f565b80601f016020809104026020016040519081016040528092919081815260200182805461134f9061341f565b801561139c5780601f106113715761010080835404028352916020019161139c565b820191906000526020600020905b81548152906001019060200180831161137f57829003601f168201915b5050505050905090565b6113b86113b1611bd2565b838361204c565b5050565b600860003373ffffffffffffffffffffffffffffffffffffffff1673ffffffffffffffffffffffffffffffffffffffff16815260200190815260200160002060009054906101000a900460ff16611448576040517f08c379a000000000000000000000000000000000000000000000000000000000815260040161143f906139f0565b60405180910390fd5b6000811161148b576040517f08c379a000000000000000000000000000000000000000000000000000000000815260040161148290613a5c565b60405180910390fd5b6007600081548092919061149e90613aab565b91905055506040518060a0016040528060075481526020018381526020018281526020013373ffffffffffffffffffffffffffffffffffffffff16815260200160001515815250600a600060075481526020019081526020016000206000820151816000015560208201518160010190816115199190613668565b506040820151816002015560608201518160030160006101000a81548173ffffffffffffffffffffffffffffffffffffffff021916908373ffffffffffffffffffffffffffffffffffffffff16021790555060808201518160030160146101000a81548160ff021916908315150217905550905050600b60003373ffffffffffffffffffffffffffffffffffffffff1673ffffffffffffffffffffffffffffffffffffffff16815260200190815260200160002060075490806001815401808255809150506001900390600052602060002001600090919091909150553373ffffffffffffffffffffffffffffffffffffffff166007547f52402cafb2ecec722b103e8f203f83362148c168659dc96678c2c6850d12dd9f8484604051611641929190613af3565b60405180910390a35050565b611658848484610b53565b61166c611663611bd2565b858585856121bb565b50505050565b606061167d82611b0d565b50600061168861236c565b905060008151116116a857604051806020016040528060008152506116d3565b806116b284612383565b6040516020016116c3929190613b5f565b6040516020818303038152906040525b915050919050565b600b60205281600052604060002081815481106116f757600080fd5b90600052602060002001600091509150505481565b6060600060075467ffffffffffffffff81111561172c5761172b612c28565b5b60405190808252806020026020018201604052801561176557816020015b61175261292b565b81526020019060019003908161174a5790505b5090506000600190505b60075481116118ea57600a60008281526020019081526020016000206040518060a0016040529081600082015481526020016001820180546117b09061341f565b80601f01602080910402602001604051908101604052809291908181526020018280546117dc9061341f565b80156118295780601f106117fe57610100808354040283529160200191611829565b820191906000526020600020905b81548152906001019060200180831161180c57829003601f168201915b50505050508152602001600282015481526020016003820160009054906101000a900473ffffffffffffffffffffffffffffffffffffffff1673ffffffffffffffffffffffffffffffffffffffff1673ffffffffffffffffffffffffffffffffffffffff1681526020016003820160149054906101000a900460ff161515151581525050826001836118bb9190613b83565b815181106118cc576118cb613bb7565b5b602002602001018190525080806118e290613aab565b91505061176f565b508091505090565b6000600560008473ffffffffffffffffffffffffffffffffffffffff1673ffffffffffffffffffffffffffffffffffffffff16815260200190815260200160002060008373ffffffffffffffffffffffffffffffffffffffff1673ffffffffffffffffffffffffffffffffffffffff16815260200190815260200160002060009054906101000a900460ff16905092915050565b61198e611eff565b600073ffffffffffffffffffffffffffffffffffffffff168173ffffffffffffffffffffffffffffffffffffffff1603611a005760006040517f1e4fbdf70000000000000000000000000000000000000000000000000000000081526004016119f79190612b97565b60405180910390fd5b611a0981611f86565b50565b6060600b60008373ffffffffffffffffffffffffffffffffffffffff1673ffffffffffffffffffffffffffffffffffffffff168152602001908152602001600020805480602002602001604051908101604052809291908181526020018280548015611a9757602002820191906000526020600020905b815481526020019060010190808311611a83575b50505050509050919050565b60007f01ffc9a7000000000000000000000000000000000000000000000000000000007bffffffffffffffffffffffffffffffffffffffffffffffffffffffff1916827bffffffffffffffffffffffffffffffffffffffffffffffffffffffff1916149050919050565b600080611b1983612451565b9050600073ffffffffffffffffffffffffffffffffffffffff168173ffffffffffffffffffffffffffffffffffffffff1603611b8c57826040517f7e273289000000000000000000000000000000000000000000000000000000008152600401611b839190612dda565b60405180910390fd5b80915050919050565b60006004600083815260200190815260200160002060009054906101000a900473ffffffffffffffffffffffffffffffffffffffff169050919050565b600033905090565b611be7838383600161248e565b505050565b600080611bf884612451565b9050600073ffffffffffffffffffffffffffffffffffffffff168373ffffffffffffffffffffffffffffffffffffffff1614611c3a57611c39818486612653565b5b600073ffffffffffffffffffffffffffffffffffffffff168173ffffffffffffffffffffffffffffffffffffffff1614611ccb57611c7c60008560008061248e565b6001600360008373ffffffffffffffffffffffffffffffffffffffff1673ffffffffffffffffffffffffffffffffffffffff168152602001908152602001600020600082825403925050819055505b600073ffffffffffffffffffffffffffffffffffffffff168573ffffffffffffffffffffffffffffffffffffffff1614611d4e576001600360008773ffffffffffffffffffffffffffffffffffffffff1673ffffffffffffffffffffffffffffffffffffffff168152602001908152602001600020600082825401925050819055505b846002600086815260200190815260200160002060006101000a81548173ffffffffffffffffffffffffffffffffffffffff021916908373ffffffffffffffffffffffffffffffffffffffff160217905550838573ffffffffffffffffffffffffffffffffffffffff168273ffffffffffffffffffffffffffffffffffffffff167fddf252ad1be2c89b69c2b068fc378daa952ba7f163c4a11628f55a4df523b3ef60405160405180910390a4809150509392505050565b600073ffffffffffffffffffffffffffffffffffffffff168273ffffffffffffffffffffffffffffffffffffffff1603611e785760006040517f64a0ae92000000000000000000000000000000000000000000000000000000008152600401611e6f9190612b97565b60405180910390fd5b6000611e8683836000611bec565b9050600073ffffffffffffffffffffffffffffffffffffffff168173ffffffffffffffffffffffffffffffffffffffff1614611efa5760006040517f73c6ac6e000000000000000000000000000000000000000000000000000000008152600401611ef19190612b97565b60405180910390fd5b505050565b611f07611bd2565b73ffffffffffffffffffffffffffffffffffffffff16611f256112ea565b73ffffffffffffffffffffffffffffffffffffffff1614611f8457611f48611bd2565b6040517f118cdaa7000000000000000000000000000000000000000000000000000000008152600401611f7b9190612b97565b60405180910390fd5b565b6000600660009054906101000a900473ffffffffffffffffffffffffffffffffffffffff16905081600660006101000a81548173ffffffffffffffffffffffffffffffffffffffff021916908373ffffffffffffffffffffffffffffffffffffffff1602179055508173ffffffffffffffffffffffffffffffffffffffff168173ffffffffffffffffffffffffffffffffffffffff167f8be0079c531659141344cd1fd0a4f28419497f9722a3daafe3b4186f6b6457e060405160405180910390a35050565b600073ffffffffffffffffffffffffffffffffffffffff168273ffffffffffffffffffffffffffffffffffffffff16036120bd57816040517f5b08ba180000000000000000000000000000000000000000000000000000000081526004016120b49190612b97565b60405180910390fd5b80600560008573ffffffffffffffffffffffffffffffffffffffff1673ffffffffffffffffffffffffffffffffffffffff16815260200190815260200160002060008473ffffffffffffffffffffffffffffffffffffffff1673ffffffffffffffffffffffffffffffffffffffff16815260200190815260200160002060006101000a81548160ff0219169083151502179055508173ffffffffffffffffffffffffffffffffffffffff168373ffffffffffffffffffffffffffffffffffffffff167f17307eab39ab6107e8899845ad3d59bd9653f200f220920489ca2b5937696c31836040516121ae9190612a26565b60405180910390a3505050565b60008373ffffffffffffffffffffffffffffffffffffffff163b1115612365578273ffffffffffffffffffffffffffffffffffffffff1663150b7a02868685856040518563ffffffff1660e01b815260040161221a9493929190613c3b565b6020604051808303816000875af192505050801561225657506040513d601f19601f820116820180604052508101906122539190613c9c565b60015b6122da573d8060008114612286576040519150601f19603f3d011682016040523d82523d6000602084013e61228b565b606091505b5060008151036122d257836040517f64a0ae920000000000000000000000000000000000000000000000000000000081526004016122c99190612b97565b60405180910390fd5b805181602001fd5b63150b7a0260e01b7bffffffffffffffffffffffffffffffffffffffffffffffffffffffff1916817bffffffffffffffffffffffffffffffffffffffffffffffffffffffff19161461236357836040517f64a0ae9200000000000000000000000000000000000000000000000000000000815260040161235a9190612b97565b60405180910390fd5b505b5050505050565b606060405180602001604052806000815250905090565b60606000600161239284612717565b01905060008167ffffffffffffffff8111156123b1576123b0612c28565b5b6040519080825280601f01601f1916602001820160405280156123e35781602001600182028036833780820191505090505b509050600082602001820190505b600115612446578080600190039150507f3031323334353637383961626364656600000000000000000000000000000000600a86061a8153600a858161243a57612439613cc9565b5b049450600085036123f1575b819350505050919050565b60006002600083815260200190815260200160002060009054906101000a900473ffffffffffffffffffffffffffffffffffffffff169050919050565b80806124c75750600073ffffffffffffffffffffffffffffffffffffffff168273ffffffffffffffffffffffffffffffffffffffff1614155b156125fb5760006124d784611b0d565b9050600073ffffffffffffffffffffffffffffffffffffffff168373ffffffffffffffffffffffffffffffffffffffff161415801561254257508273ffffffffffffffffffffffffffffffffffffffff168173ffffffffffffffffffffffffffffffffffffffff1614155b8015612555575061255381846118f2565b155b1561259757826040517fa9fbf51f00000000000000000000000000000000000000000000000000000000815260040161258e9190612b97565b60405180910390fd5b81156125f957838573ffffffffffffffffffffffffffffffffffffffff168273ffffffffffffffffffffffffffffffffffffffff167f8c5be1e5ebec7d5bd14f71427d1e84f3dd0314c0f7b2291e5b200ac8c7c3b92560405160405180910390a45b505b836004600085815260200190815260200160002060006101000a81548173ffffffffffffffffffffffffffffffffffffffff021916908373ffffffffffffffffffffffffffffffffffffffff16021790555050505050565b61265e83838361286a565b61271257600073ffffffffffffffffffffffffffffffffffffffff168373ffffffffffffffffffffffffffffffffffffffff16036126d357806040517f7e2732890000000000000000000000000000000000000000000000000000000081526004016126ca9190612dda565b60405180910390fd5b81816040517f177e802f000000000000000000000000000000000000000000000000000000008152600401612709929190613cf8565b60405180910390fd5b505050565b600080600090507a184f03e93ff9f4daa797ed6e38ed64bf6a1f0100000000000000008310612775577a184f03e93ff9f4daa797ed6e38ed64bf6a1f010000000000000000838161276b5761276a613cc9565b5b0492506040810190505b6d04ee2d6d415b85acef810000000083106127b2576d04ee2d6d415b85acef810000000083816127a8576127a7613cc9565b5b0492506020810190505b662386f26fc1000083106127e157662386f26fc1000083816127d7576127d6613cc9565b5b0492506010810190505b6305f5e100831061280a576305f5e1008381612800576127ff613cc9565b5b0492506008810190505b612710831061282f57612710838161282557612824613cc9565b5b0492506004810190505b60648310612852576064838161284857612847613cc9565b5b0492506002810190505b600a8310612861576001810190505b80915050919050565b60008073ffffffffffffffffffffffffffffffffffffffff168373ffffffffffffffffffffffffffffffffffffffff161415801561292257508273ffffffffffffffffffffffffffffffffffffffff168473ffffffffffffffffffffffffffffffffffffffff1614806128e357506128e284846118f2565b5b8061292157508273ffffffffffffffffffffffffffffffffffffffff1661290983611b95565b73ffffffffffffffffffffffffffffffffffffffff16145b5b90509392505050565b6040518060a00160405280600081526020016060815260200160008152602001600073ffffffffffffffffffffffffffffffffffffffff1681526020016000151581525090565b6000604051905090565b600080fd5b600080fd5b60007fffffffff0000000000000000000000000000000000000000000000000000000082169050919050565b6129bb81612986565b81146129c657600080fd5b50565b6000813590506129d8816129b2565b92915050565b6000602082840312156129f4576129f361297c565b5b6000612a02848285016129c9565b91505092915050565b60008115159050919050565b612a2081612a0b565b82525050565b6000602082019050612a3b6000830184612a17565b92915050565b600081519050919050565b600082825260208201905092915050565b60005b83811015612a7b578082015181840152602081019050612a60565b60008484015250505050565b6000601f19601f8301169050919050565b6000612aa382612a41565b612aad8185612a4c565b9350612abd818560208601612a5d565b612ac681612a87565b840191505092915050565b60006020820190508181036000830152612aeb8184612a98565b905092915050565b6000819050919050565b612b0681612af3565b8114612b1157600080fd5b50565b600081359050612b2381612afd565b92915050565b600060208284031215612b3f57612b3e61297c565b5b6000612b4d84828501612b14565b91505092915050565b600073ffffffffffffffffffffffffffffffffffffffff82169050919050565b6000612b8182612b56565b9050919050565b612b9181612b76565b82525050565b6000602082019050612bac6000830184612b88565b92915050565b612bbb81612b76565b8114612bc657600080fd5b50565b600081359050612bd881612bb2565b92915050565b60008060408385031215612bf557612bf461297c565b5b6000612c0385828601612bc9565b9250506020612c1485828601612b14565b9150509250929050565b600080fd5b600080fd5b7f4e487b7100000000000000000000000000000000000000000000000000000000600052604160045260246000fd5b612c6082612a87565b810181811067ffffffffffffffff82111715612c7f57612c7e612c28565b5b80604052505050565b6000612c92612972565b9050612c9e8282612c57565b919050565b600067ffffffffffffffff821115612cbe57612cbd612c28565b5b612cc782612a87565b9050602081019050919050565b82818337600083830152505050565b6000612cf6612cf184612ca3565b612c88565b905082815260208101848484011115612d1257612d11612c23565b5b612d1d848285612cd4565b509392505050565b600082601f830112612d3a57612d39612c1e565b5b8135612d4a848260208601612ce3565b91505092915050565b60008060408385031215612d6a57612d6961297c565b5b600083013567ffffffffffffffff811115612d8857612d87612981565b5b612d9485828601612d25565b925050602083013567ffffffffffffffff811115612db557612db4612981565b5b612dc185828601612d25565b9150509250929050565b612dd481612af3565b82525050565b6000602082019050612def6000830184612dcb565b92915050565b600080600060608486031215612e0e57612e0d61297c565b5b6000612e1c86828701612bc9565b9350506020612e2d86828701612bc9565b9250506040612e3e86828701612b14565b9150509250925092565b600060208284031215612e5e57612e5d61297c565b5b6000612e6c84828501612bc9565b91505092915050565b60006080820190508181036000830152612e8f8187612a98565b90508181036020830152612ea38186612a98565b9050612eb26040830185612b88565b612ebf6060830184612a17565b95945050505050565b600060a082019050612edd6000830188612dcb565b8181036020830152612eef8187612a98565b9050612efe6040830186612dcb565b612f0b6060830185612b88565b612f186080830184612a17565b9695505050505050565b600081519050919050565b600082825260208201905092915050565b6000819050602082019050919050565b612f5781612af3565b82525050565b6000612f698383612f4e565b60208301905092915050565b6000602082019050919050565b6000612f8d82612f22565b612f978185612f2d565b9350612fa283612f3e565b8060005b83811015612fd3578151612fba8882612f5d565b9750612fc583612f75565b925050600181019050612fa6565b5085935050505092915050565b60006020820190508181036000830152612ffa8184612f82565b905092915050565b61300b81612a0b565b811461301657600080fd5b50565b60008135905061302881613002565b92915050565b600080604083850312156130455761304461297c565b5b600061305385828601612bc9565b925050602061306485828601613019565b9150509250929050565b600080604083850312156130855761308461297c565b5b600083013567ffffffffffffffff8111156130a3576130a2612981565b5b6130af85828601612d25565b92505060206130c085828601612b14565b9150509250929050565b600067ffffffffffffffff8211156130e5576130e4612c28565b5b6130ee82612a87565b9050602081019050919050565b600061310e613109846130ca565b612c88565b90508281526020810184848401111561312a57613129612c23565b5b613135848285612cd4565b509392505050565b600082601f83011261315257613151612c1e565b5b81356131628482602086016130fb565b91505092915050565b600080600080608085870312156131855761318461297c565b5b600061319387828801612bc9565b94505060206131a487828801612bc9565b93505060406131b587828801612b14565b925050606085013567ffffffffffffffff8111156131d6576131d5612981565b5b6131e28782880161313d565b91505092959194509250565b600081519050919050565b600082825260208201905092915050565b6000819050602082019050919050565b600082825260208201905092915050565b600061323682612a41565b613240818561321a565b9350613250818560208601612a5d565b61325981612a87565b840191505092915050565b61326d81612b76565b82525050565b61327c81612a0b565b82525050565b600060a08301600083015161329a6000860182612f4e565b50602083015184820360208601526132b2828261322b565b91505060408301516132c76040860182612f4e565b5060608301516132da6060860182613264565b5060808301516132ed6080860182613273565b508091505092915050565b60006133048383613282565b905092915050565b6000602082019050919050565b6000613324826131ee565b61332e81856131f9565b9350836020820285016133408561320a565b8060005b8581101561337c578484038952815161335d85826132f8565b94506133688361330c565b925060208a01995050600181019050613344565b50829750879550505050505092915050565b600060208201905081810360008301526133a88184613319565b905092915050565b600080604083850312156133c7576133c661297c565b5b60006133d585828601612bc9565b92505060206133e685828601612bc9565b9150509250929050565b7f4e487b7100000000000000000000000000000000000000000000000000000000600052602260045260246000fd5b6000600282049050600182168061343757607f821691505b60208210810361344a576134496133f0565b5b50919050565b7f4272616e6420616c726561647920726567697374657265640000000000000000600082015250565b6000613486601883612a4c565b915061349182613450565b602082019050919050565b600060208201905081810360008301526134b581613479565b9050919050565b60008190508160005260206000209050919050565b60006020601f8301049050919050565b600082821b905092915050565b60006008830261351e7fffffffffffffffffffffffffffffffffffffffffffffffffffffffffffffffff826134e1565b61352886836134e1565b95508019841693508086168417925050509392505050565b6000819050919050565b600061356561356061355b84612af3565b613540565b612af3565b9050919050565b6000819050919050565b61357f8361354a565b61359361358b8261356c565b8484546134ee565b825550505050565b600090565b6135a861359b565b6135b3818484613576565b505050565b5b818110156135d7576135cc6000826135a0565b6001810190506135b9565b5050565b601f82111561361c576135ed816134bc565b6135f6846134d1565b81016020851015613605578190505b613619613611856134d1565b8301826135b8565b50505b505050565b600082821c905092915050565b600061363f60001984600802613621565b1980831691505092915050565b6000613658838361362e565b9150826002028217905092915050565b61367182612a41565b67ffffffffffffffff81111561368a57613689612c28565b5b613694825461341f565b61369f8282856135db565b600060209050601f8311600181146136d257600084156136c0578287015190505b6136ca858261364c565b865550613732565b601f1984166136e0866134bc565b60005b82811015613708578489015182556001820191506020850194506020810190506136e3565b868310156137255784890151613721601f89168261362e565b8355505b6001600288020188555050505b505050505050565b600060408201905081810360008301526137548185612a98565b905081810360208301526137688184612a98565b90509392505050565b60006060820190506137866000830186612b88565b6137936020830185612dcb565b6137a06040830184612b88565b949350505050565b7f50726f6475637420646f6573206e6f7420657869737400000000000000000000600082015250565b60006137de601683612a4c565b91506137e9826137a8565b602082019050919050565b6000602082019050818103600083015261380d816137d1565b9050919050565b7f4272616e64206f776e6572732063616e6e6f7420627579207468656972206f7760008201527f6e204e4654730000000000000000000000000000000000000000000000000000602082015250565b6000613870602683612a4c565b915061387b82613814565b604082019050919050565b6000602082019050818103600083015261389f81613863565b9050919050565b7f4e465420616c7265616479206d696e7465640000000000000000000000000000600082015250565b60006138dc601283612a4c565b91506138e7826138a6565b602082019050919050565b6000602082019050818103600083015261390b816138cf565b9050919050565b7f496e73756666696369656e742066756e64730000000000000000000000000000600082015250565b6000613948601283612a4c565b915061395382613912565b602082019050919050565b600060208201905081810360008301526139778161393b565b9050919050565b7f4f6e6c79206272616e64206f776e6572732063616e2063616c6c20746869732060008201527f66756e6374696f6e000000000000000000000000000000000000000000000000602082015250565b60006139da602883612a4c565b91506139e58261397e565b604082019050919050565b60006020820190508181036000830152613a09816139cd565b9050919050565b7f5072696365206d7573742062652067726561746572207468616e207a65726f00600082015250565b6000613a46601f83612a4c565b9150613a5182613a10565b602082019050919050565b60006020820190508181036000830152613a7581613a39565b9050919050565b7f4e487b7100000000000000000000000000000000000000000000000000000000600052601160045260246000fd5b6000613ab682612af3565b91507fffffffffffffffffffffffffffffffffffffffffffffffffffffffffffffffff8203613ae857613ae7613a7c565b5b600182019050919050565b60006040820190508181036000830152613b0d8185612a98565b9050613b1c6020830184612dcb565b9392505050565b600081905092915050565b6000613b3982612a41565b613b438185613b23565b9350613b53818560208601612a5d565b80840191505092915050565b6000613b6b8285613b2e565b9150613b778284613b2e565b91508190509392505050565b6000613b8e82612af3565b9150613b9983612af3565b9250828203905081811115613bb157613bb0613a7c565b5b92915050565b7f4e487b7100000000000000000000000000000000000000000000000000000000600052603260045260246000fd5b600081519050919050565b600082825260208201905092915050565b6000613c0d82613be6565b613c178185613bf1565b9350613c27818560208601612a5d565b613c3081612a87565b840191505092915050565b6000608082019050613c506000830187612b88565b613c5d6020830186612b88565b613c6a6040830185612dcb565b8181036060830152613c7c8184613c02565b905095945050505050565b600081519050613c96816129b2565b92915050565b600060208284031215613cb257613cb161297c565b5b6000613cc084828501613c87565b91505092915050565b7f4e487b7100000000000000000000000000000000000000000000000000000000600052601260045260246000fd5b6000604082019050613d0d6000830185612b88565b613d1a6020830184612dcb565b939250505056fea2646970667358221220d1ca2767dab212bf9e10902dd25b63a153ef6eead604bac6dcff2811d978487764736f6c63430008180033",
  "linkReferences": {},
  "deployedLinkReferences": {}
}